{
  "contractName": "Voting",
  "abi": [
    {
      "inputs": [],
      "stateMutability": "nonpayable",
      "type": "constructor"
    },
    {
      "inputs": [
        {
          "internalType": "uint256",
          "name": "",
          "type": "uint256"
        }
      ],
      "name": "candidates",
      "outputs": [
        {
          "internalType": "string",
          "name": "",
          "type": "string"
        }
      ],
      "stateMutability": "view",
      "type": "function",
      "constant": true
    },
    {
      "inputs": [],
      "name": "getCandidates",
      "outputs": [
        {
          "internalType": "string[]",
          "name": "",
          "type": "string[]"
        }
      ],
      "stateMutability": "view",
      "type": "function",
      "constant": true
    }
  ],
  "bytecode": "0x608060405234801561001057600080fd5b506000805460018101825590805260408051808201909152600980825268456c6f6e204d75736b60b81b602090920191825261005d92600080516020610764833981519152019190610335565b506000805460018101825590805260408051808201909152600c8082526b42617261636b204f62616d6160a01b60209092019182526100ad92600080516020610764833981519152019190610335565b506000805460018101825590805260408051808201909152600c8082526b0446f6e616c64205472756d760a41b60209092019182526100fd92600080516020610764833981519152019190610335565b5060008054600181018255908052604080518082019091526009808252682537b2902134b232b760b91b602090920191825261014a92600080516020610764833981519152019190610335565b506000805460018101825590805260408051808201909152600d8082526c4f707261682057696e6672657960981b602090920191825261019b92600080516020610764833981519152019190610335565b506000805460018101825590805260408051808201909152600f8082526e4d61726b205a75636b65726265726760881b60209092019182526101ee92600080516020610764833981519152019190610335565b506000805460018101825590805260408051808201909152600a808252694a6566662042657a6f7360b01b602090920191825261023c92600080516020610764833981519152019190610335565b506000805460018101825590805260408051808201909152601180825270437269737469616e6f20526f6e616c646f60781b602090920191825261029192600080516020610764833981519152019190610335565b506000805460018101825590805260408051808201909152600c8082526b15185e5b1bdc8814ddda599d60a21b60209092019182526102e192600080516020610764833981519152019190610335565b506000805460018101825590805260408051808201909152600a8082526942696c6c20476174657360b01b602090920191825261032f92600080516020610764833981519152019190610335565b50610409565b828054610341906103ce565b90600052602060002090601f01602090048101928261036357600085556103a9565b82601f1061037c57805160ff19168380011785556103a9565b828001600101855582156103a9579182015b828111156103a957825182559160200191906001019061038e565b506103b59291506103b9565b5090565b5b808211156103b557600081556001016103ba565b6002810460018216806103e257607f821691505b6020821081141561040357634e487b7160e01b600052602260045260246000fd5b50919050565b61034c806104186000396000f3fe608060405234801561001057600080fd5b50600436106100365760003560e01c806306a49fce1461003b5780633477ee2e14610059575b600080fd5b610043610079565b6040516100509190610261565b60405180910390f35b61006c6100673660046101fe565b610152565b60405161005091906102c1565b60606000805480602002602001604051908101604052809291908181526020016000905b828210156101495783829060005260206000200180546100bc906102db565b80601f01602080910402602001604051908101604052809291908181526020018280546100e8906102db565b80156101355780601f1061010a57610100808354040283529160200191610135565b820191906000526020600020905b81548152906001019060200180831161011857829003601f168201915b50505050508152602001906001019061009d565b50505050905090565b6000818154811061016257600080fd5b90600052602060002001600091509050805461017d906102db565b80601f01602080910402602001604051908101604052809291908181526020018280546101a9906102db565b80156101f65780601f106101cb576101008083540402835291602001916101f6565b820191906000526020600020905b8154815290600101906020018083116101d957829003601f168201915b505050505081565b60006020828403121561020f578081fd5b5035919050565b60008151808452815b8181101561023b5760208185018101518683018201520161021f565b8181111561024c5782602083870101525b50601f01601f19169290920160200192915050565b6000602080830181845280855180835260408601915060408482028701019250838701855b828110156102b457603f198886030184526102a2858351610216565b94509285019290850190600101610286565b5092979650505050505050565b6000602082526102d46020830184610216565b9392505050565b6002810460018216806102ef57607f821691505b6020821081141561031057634e487b7160e01b600052602260045260246000fd5b5091905056fea2646970667358221220f9967f26cb57890a35c7081eacce9c64f33fd731522a4924e4ac4e3f1d4bff4364736f6c63430008000033290decd9548b62a8d60345a988386fc84ba6bc95484008f6362f93160ef3e563",
  "immutableReferences": {},
  "source": "pragma solidity ^0.8.0;\r\n\r\ncontract Voting {\r\n    string[] public candidates;\r\n\r\n    constructor() {\r\n        candidates.push(\"Elon Musk\");\r\n        candidates.push(\"Barack Obama\");\r\n        candidates.push(\"Donald Trump\");\r\n        candidates.push(\"Joe Biden\");\r\n        candidates.push(\"Oprah Winfrey\");\r\n        candidates.push(\"Mark Zuckerberg\");\r\n        candidates.push(\"Jeff Bezos\");\r\n        candidates.push(\"Cristiano Ronaldo\");\r\n        candidates.push(\"Taylor Swift\");\r\n        candidates.push(\"Bill Gates\");\r\n    }\r\n\r\n    function getCandidates() public view returns (string[] memory) {\r\n        return candidates;\r\n    }\r\n}\r\n",
  "sourcePath": "C:\\Users\\BIGSAMOFAFRICA\\OneDrive\\Desktop\\e-voting-system\\backend\\contracts\\Voting.sol",
  "compiler": {
    "name": "solc",
    "version": "0.8.0+commit.c7dfd78e.Emscripten.clang"
  },
  "schemaVersion": "3.4.16",
  "updatedAt": "2025-02-21T13:57:50.949Z",
  "networkType": "ethereum",
  "devdoc": {
    "kind": "dev",
    "methods": {},
    "version": 1
  },
  "userdoc": {
    "kind": "user",
    "methods": {},
    "version": 1
  }
}