{
  "contractName": "Voting",
  "abi": [
    {
      "inputs": [
        {
          "internalType": "string[]",
          "name": "candidateNames",
          "type": "string[]"
        }
      ],
      "stateMutability": "nonpayable",
      "type": "constructor"
    },
    {
      "inputs": [],
      "name": "candidateCount",
      "outputs": [
        {
          "internalType": "uint256",
          "name": "",
          "type": "uint256"
        }
      ],
      "stateMutability": "view",
      "type": "function",
      "constant": true
    },
    {
      "inputs": [
        {
          "internalType": "uint256",
          "name": "",
          "type": "uint256"
        }
      ],
      "name": "candidates",
      "outputs": [
        {
          "internalType": "string",
          "name": "name",
          "type": "string"
        },
        {
          "internalType": "uint256",
          "name": "voteCount",
          "type": "uint256"
        }
      ],
      "stateMutability": "view",
      "type": "function",
      "constant": true
    },
    {
      "inputs": [
        {
          "internalType": "address",
          "name": "",
          "type": "address"
        }
      ],
      "name": "hasVoted",
      "outputs": [
        {
          "internalType": "bool",
          "name": "",
          "type": "bool"
        }
      ],
      "stateMutability": "view",
      "type": "function",
      "constant": true
    },
    {
      "inputs": [
        {
          "internalType": "uint256",
          "name": "candidateId",
          "type": "uint256"
        }
      ],
      "name": "vote",
      "outputs": [],
      "stateMutability": "nonpayable",
      "type": "function"
    },
    {
      "inputs": [
        {
          "internalType": "uint256",
          "name": "candidateId",
          "type": "uint256"
        }
      ],
      "name": "getVoteCount",
      "outputs": [
        {
          "internalType": "uint256",
          "name": "",
          "type": "uint256"
        }
      ],
      "stateMutability": "view",
      "type": "function",
      "constant": true
    }
  ],
  "bytecode": "0x608060405234801561001057600080fd5b5060405161074638038061074683398101604081905261002f91610172565b60005b81518110156100d257604051806040016040528083838151811061006657634e487b7160e01b600052603260045260246000fd5b60209081029190910181015182526000918101829052838252818152604090912082518051919261009c928492909101906100d9565b5060209190910151600190910155600280549060006100ba836102e4565b919050555080806100ca906102e4565b915050610032565b5050610321565b8280546100e5906102a9565b90600052602060002090601f016020900481019282610107576000855561014d565b82601f1061012057805160ff191683800117855561014d565b8280016001018555821561014d579182015b8281111561014d578251825591602001919060010190610132565b5061015992915061015d565b5090565b5b80821115610159576000815560010161015e565b60006020808385031215610184578182fd5b82516001600160401b038082111561019a578384fd5b8185019150601f86818401126101ae578485fd5b8251828111156101c0576101c061030b565b6101cd8586830201610280565b81815285810190858701885b8481101561027057815188018c603f8201126101f3578a8bfd5b89810151888111156102075761020761030b565b610218818901601f19168c01610280565b81815260408f8184860101111561022d578d8efd5b8d5b8381101561024a578481018201518382018f01528d0161022f565b8381111561025a578e8e85850101525b50508652505092880192908801906001016101d9565b50909a9950505050505050505050565b6040518181016001600160401b03811182821017156102a1576102a161030b565b604052919050565b6002810460018216806102bd57607f821691505b602082108114156102de57634e487b7160e01b600052602260045260246000fd5b50919050565b600060001982141561030457634e487b7160e01b81526011600452602481fd5b5060010190565b634e487b7160e01b600052604160045260246000fd5b610416806103306000396000f3fe608060405234801561001057600080fd5b50600436106100575760003560e01c80630121b93f1461005c57806309eef43e146100715780633477ee2e1461009a578063a9a981a3146100bb578063b2c2f2e8146100d0575b600080fd5b61006f61006a3660046102a5565b6100e3565b005b61008461007f366004610277565b61017f565b60405161009191906102bd565b60405180910390f35b6100ad6100a83660046102a5565b610194565b6040516100919291906102c8565b6100c3610238565b6040516100919190610375565b6100c36100de3660046102a5565b61023e565b3360009081526001602052604090205460ff161561011c5760405162461bcd60e51b815260040161011390610323565b60405180910390fd5b600254811061013d5760405162461bcd60e51b81526004016101139061034a565b600081815260208190526040812060010180549161015a836103b9565b9091555050336000908152600160208190526040909120805460ff1916909117905550565b60016020526000908152604090205460ff1681565b6000602081905290815260409020805481906101af9061037e565b80601f01602080910402602001604051908101604052809291908181526020018280546101db9061037e565b80156102285780601f106101fd57610100808354040283529160200191610228565b820191906000526020600020905b81548152906001019060200180831161020b57829003601f168201915b5050505050908060010154905082565b60025481565b600060025482106102615760405162461bcd60e51b81526004016101139061034a565b5060009081526020819052604090206001015490565b600060208284031215610288578081fd5b81356001600160a01b038116811461029e578182fd5b9392505050565b6000602082840312156102b6578081fd5b5035919050565b901515815260200190565b6000604082528351806040840152815b818110156102f557602081870181015160608684010152016102d8565b818111156103065782606083860101525b50602083019390935250601f91909101601f191601606001919050565b6020808252600d908201526c105b1c9958591e481d9bdd1959609a1b604082015260600190565b602080825260119082015270496e76616c69642063616e64696461746560781b604082015260600190565b90815260200190565b60028104600182168061039257607f821691505b602082108114156103b357634e487b7160e01b600052602260045260246000fd5b50919050565b60006000198214156103d957634e487b7160e01b81526011600452602481fd5b506001019056fea2646970667358221220f6beed4be0fd5fd0752c671ade89e4b50a62a7d11c5274fb10a14e84349d71fe64736f6c63430008000033",
  "immutableReferences": {},
  "source": "// SPDX-License-Identifier: MIT\r\npragma solidity ^0.8.0;\r\n\r\ncontract Voting {\r\n    struct Candidate {\r\n        string name;\r\n        uint256 voteCount;\r\n    }\r\n\r\n    mapping(uint256 => Candidate) public candidates;\r\n    mapping(address => bool) public hasVoted;\r\n    uint256 public candidateCount;\r\n\r\n    constructor(string[] memory candidateNames) {\r\n        for (uint256 i = 0; i < candidateNames.length; i++) {\r\n            candidates[i] = Candidate(candidateNames[i], 0);\r\n            candidateCount++;\r\n        }\r\n    }\r\n\r\n    function vote(uint256 candidateId) public {\r\n        require(!hasVoted[msg.sender], \"Already voted\");\r\n        require(candidateId < candidateCount, \"Invalid candidate\");\r\n\r\n        candidates[candidateId].voteCount++;\r\n        hasVoted[msg.sender] = true;\r\n    }\r\n\r\n    function getVoteCount(uint256 candidateId) public view returns (uint256) {\r\n        require(candidateId < candidateCount, \"Invalid candidate\");\r\n        return candidates[candidateId].voteCount;\r\n    }\r\n}",
  "sourcePath": "C:\\Users\\BIGSAMOFAFRICA\\OneDrive\\Desktop\\e-voting-system\\backend\\contracts\\Voting.sol",
  "compiler": {
    "name": "solc",
    "version": "0.8.0+commit.c7dfd78e.Emscripten.clang"
  },
  "schemaVersion": "3.4.16",
  "updatedAt": "2025-02-19T09:52:04.354Z",
  "networkType": "ethereum",
  "devdoc": {
    "kind": "dev",
    "methods": {},
    "version": 1
  },
  "userdoc": {
    "kind": "user",
    "methods": {},
    "version": 1
  }
}